:100000000C941E010C94EF050C943B010C943B01E5
:100010000C943B010C943B010C943B010C943B0170
:100020000C943B010C943B010C943B010C943B0160
:100030000C943B010C943B010C943B010C943B0150
:100040000C943B010C946F060C94E4010C945E023A
:100050000C943B010C943B010C943B010C943B0130
:100060000C943B010C943B0141434B005365727669
:10007000657220737461727400506172743A202545
:10008000780A000702010001C9C380081341412119
:1000900020674B0008110004005200183010112096
:1000A0000C0003000702710005C9C38000000511A0
:1000B00020010C461011200C1C8000B0100CE80030
:1000C0004E068DB9000E11200A280002C008001249
:1000D000C6D4015C0F11200B391111801A200000C9
:1000E000280CA4230D112009450300850100FF06FB
:1000F00009100611200250940A0611200254030729
:10010000091120055B40040478201011210C007EA9
:10011000641BBA580BDDCED6E6F6001011210C0C8C
:10012000030315F03F007E641BBA580B0F11210B1F
:1001300018DDCED6E6F600030315F03F05112201C7
:10014000031D0C1140080037090000444420FE083C
:10015000320000000000000005175610CAF0051715
:100160001310CAF00811010400071800000711025B
:1001700003000A09000511100104310811110401DE
:10018000B42B00000E11120A00040108FFFF20002A
:10019000002A010B1112070E0106AA0080022A0E86
:1001A00011200A031E848009C9C380000DA70F1106
:1001B000200B1E102000E8004B06D3A006D40D1122
:1001C00020092A00000023C6D400A9E00911200557
:1001D000391010801A400C112008460115020080C9
:1001E0000602180511200150840511200154040550
:1001F0001120015D081011210C00A28126AF3FEEF5
:10020000C8C7DBF202081011210C0C070315FC0F04
:1002100000A28126AF3FEE0F11210B18C8C7DBF2F9
:100220000208070315FC0F0A1123060034040B040F
:1002300007700811400400380DDDDD0011241FBED9
:10024000CFEFD8E0DEBFCDBF11E0A0E0B1E0E8E93C
:10025000F4E102C005900D92A431B107D9F721E075
:10026000A4E1B1E001C01D92A435B207E1F70E94FC
:1002700065010C944A0A0C940000CF93C82F8A3071
:1002800019F48DE00E943D018091C00085FFFCCFF4
:10029000C093C60080E090E0CF910895893008F0C7
:1002A00088E0E4E1F1E091E09083728361838383ED
:1002B000682F88E191E00E94F1040895E4E1F1E003
:1002C00022E02083928381830895CF93DF93CDB77B
:1002D000DEB766970FB6F894DEBF0FBECDBF90E0D5
:1002E00080E80FB6F89480936100909361000FBE90
:1002F0000E94BD0680E091E09093510180935001EF
:100300000E94D2048FE70E94B504789484E10E9491
:10031000AD058FEF809323011092220110922001EE
:1003200010922101CE0101960E944F048B818F9380
:100330008A818F9389E790E09F938F930E940907AA
:100340008CE690E00E942F070F900F900F900F9077
:10035000809114018823E1F380911401813031F000
:100360001092140184E10E94AD05F2CF10921401A5
:100370006EE071E088E191E00E940007892B01F1B5
:1003800068E070E088E191E00E94D8068E01015F8C
:100390001F4F88E0F80111928A95E9F788E690E00E
:1003A0009F938F931F930F930E94600728E044E16F
:1003B00068E0C8010E941A050F900F900F900F90EF
:1003C00084E10E94AD05C4CF1F920F920FB60F9229
:1003D00011248F929F92AF92BF92CF92DF92EF92B1
:1003E000FF921F932F933F934F935F936F937F934E
:1003F0008F939F93AF93BF93EF93FF93CF93DF932D
:10040000CDB7DEB7EDB6FEB68091C600E091230110
:10041000EF5F1E2F1F71109323018D3549F5C12EFB
:10042000D12CA6014F5F5F4F8DB79EB7841B950BF4
:100430000FB6F8949EBF0FBE8DBF01965C0164E2BB
:1004400071E00E94F706F501EC0DFD1D8DE580833E
:1004500061E0610F28E044E1C5010E941A058FEFB9
:10046000809323010FB6F894FEBE0FBEEDBE05C00B
:10047000E12FF0E0EC5DFE4F80830FB6F894FEBEF6
:100480000FBEEDBEDF91CF91FF91EF91BF91AF9184
:100490009F918F917F916F915F914F913F912F919C
:1004A0001F91FF90EF90DF90CF90BF90AF909F9003
:1004B0008F900F900FBE0F901F9018951F920F9264
:1004C0000FB60F9211248F939F93EF93FF93909108
:1004D000210180912001981741F0809120018F5FC8
:1004E000809320011092C60005C0E1ECF0E080810D
:1004F0008F7D8083FF91EF919F918F910F900FBE21
:100500000F901F901895AC013FB7F89421E080E060
:100510002DC095B19B7F95B991E025C084E48EBD37
:100520000DB407FEFDCF8FEF8EBD0DB407FEFDCFDE
:100530009EB581E09F3F09F080E09F3F69F00FC0CA
:10054000FA01E90FF11D2FEF2EBD0DB407FEFDCF0F
:100550002EB520839F5F01C090E0961788F395B178
:10056000946095B990E020E09111D8CF2111D1CFBE
:100570003FBF0895382F4FB7F89421E080E016C0B0
:1005800095B19B7F95B991E00EC03EBD0DB407FEBD
:10059000FDCF9FEF9EBD0DB407FEFDCF8EB595B18B
:1005A000946095B990E020E09111EFCF2111E8CF50
:1005B0004FBF089580E50E94BA02869590E0865864
:1005C0009109089581E50E94BA02853029F08630AC
:1005D00029F0843031F404C087E0089588E008955C
:1005E00083E008958BB180628BB92FE788E391E0B7
:1005F000215080409040E1F700C000008BB18F7D1A
:100600008BB92FE788E391E0215080409040E1F7DB
:1006100000C0000008950895DF92EF92FF920F93BB
:100620001F93CF93DF937C01D62FD42E00E41CE9D7
:100630000CC08AE18A95F1F700C0DD2031F001504D
:10064000110919F40E940B0308C06D2FC7010E9405
:100650008302C82F882369F3C1E08C2FDF91CF91EB
:100660001F910F91FF90EF90DF90089508958DB343
:100670009DB39E7F9DBB81700895882319F08DB333
:1006800081608DBB0895CF92DF92FF920F931F93ED
:10069000CF93DF938C01C62F6A01F22E0E9437039D
:1006A000D82F91E03DC041E060E080E090E00E9402
:1006B0000C0390E08823A1F12FB7F89491E019C0C2
:1006C00085B18B7F85B981E011C0F801E80FF11D7C
:1006D00090819EBD0DB407FEFDCF8F5F01C080E00D
:1006E0008C1798F385B1846085B980E090E0811122
:1006F000F6CF9111E5CF2FBFF8018081873139F412
:1007000040E060E080E090E00E940C0308C0C1146B
:10071000D10429F041E06F2DC6010E940C0390E046
:100720009111C1CF8D2F0E943D03DF91CF911F9179
:100730000F91FF90DF90CF9008950F931F93CF9369
:10074000DF93CDB7DEB761970FB6F894DEBF0FBE6B
:10075000CDBF00E010E016C0B8016D577F4F41E1FA
:1007600050E0CE0101960E94EE0620E040E050E00D
:100770006981CE0102960E9443038981080F111DF1
:100780000F5F1F4F083B81E0180730F361960FB6EB
:10079000F894DEBF0FBECDBFDF91CF911F910F91B7
:1007A0000895CF93DF931F92CDB7DEB720E2298360
:1007B00028E0AC0161E0CE0101960E9443030F9056
:1007C000DF91CF910895EF92FF921F93CF93DF9324
:1007D000CDB7DEB760970FB6F894DEBF0FBECDBFC2
:1007E000142F9E012F5F3F4F790120E1F7011192F5
:1007F0002A95E9F721E129839A834B838C8350E082
:10080000CE0105960E94F70664E0610F20E040E00B
:1008100050E0C7010E94430360960FB6F894DEBF14
:100820000FBECDBFDF91CF911F91FF90EF90089544
:10083000CF93DF9300D0CDB7DEB794E399838A835B
:1008400020E040E050E062E0CE0101960E944303C8
:100850000F900F90DF91CF91089520E040E050E09D
:1008600062E082E191E00E9443030895CF93DF9319
:1008700000D000D0CDB7DEB730E239836A834B8336
:100880002C8328E0AC0164E0CE0101960E94430372
:100890000F900F900F900F90DF91CF910895EF92EE
:1008A000FF920F931F93CF93DF93CDB7DEB72897B7
:1008B0000FB6F894DEBF0FBECDBF8C01CE010196FE
:1008C0007C0188E0F70111928A95E9F781E089833C
:1008D00028E0A70161E0C7010E94430381E190E0A5
:1008E0000E94D1068981F80180838A8190E0982F47
:1008F00088272B81822B928381838C8183838D81B6
:1009000090E0982F88272E81822B958384838F8176
:1009100086838885878380E1898326E0A70161E05B
:10092000C7010E94430382E190E00E94D1068981C1
:10093000F80180878A8181878B8182878C8190E012
:10094000982F88272D81822B948783878E81858796
:1009500028960FB6F894DEBF0FBECDBFDF91CF91C2
:100960001F910F91FF90EF900895CF93DF931F9207
:10097000CDB7DEB7898341E0BE016F5F7F4F81E075
:1009800092E20E94E3030F90DF91CF9108950E94BD
:10099000E202873029F081E00E94180481E0089586
:1009A00080E0089585B1846085B984B1846084B99C
:1009B0008AB180628AB98BB184608BB90E9461066A
:1009C0000E94F2020E949D0380E090E00E94D10309
:1009D0000E94C70488E18093440181E00E943D03A6
:1009E0000895AC013FB7F89491E020C085B18B7FAA
:1009F00085B981E018C087E78EBD0DB407FEFDCF35
:100A000090E00BC0FA01E90FF11D2FEF2EBD0DB4E0
:100A100007FEFDCF2EB520839F5F961798F385B113
:100A2000846085B980E090E08111E5CF9111DECF3F
:100A30003FBF0895CF92DF92EF92FF920F931F93E3
:100A4000CF93DF93CDB7DEB729970FB6F894DEBF0B
:100A50000FBECDBF7C01162FC42ED22E0E943703AD
:100A6000082F81E065C00E94E202873029F4802FC0
:100A70000E943D0380E062C083E00E9418040E944F
:100A80002D042FEF40E060E080E090E00E9436040B
:100A90002FB7F89491E022C085B18B7F85B981E0B2
:100AA0001AC086E68EBD0DB407FEFDCF1EBD0DB487
:100AB00007FEFDCF80E009C0F701E80FF11D90812E
:100AC0009EBD0DB407FEFDCF8F5F8117A8F385B1E2
:100AD000846085B980E090E08111E3CF9111DCCF93
:100AE0002FBF188741E0BE01685F7F4F82E192E12E
:100AF0000E94E30381E38983CA828D2D8295807FE2
:100B00008B831C821D821E821F8220E040E050E009
:100B100067E0CE0101960E94430380E8898741E0A7
:100B2000BE01675F7F4F82E192E10E94E30380E0B4
:100B3000811199CF802F0E943D0381E029960FB645
:100B4000F894DEBF0FBECDBFDF91CF911F910F9103
:100B5000FF90EF90DF90CF9008950F931F93CF9366
:100B6000DF93CDB7DEB728970FB6F894DEBF0FBE80
:100B7000CDBF182F0E943703082F81E020C083E0EB
:100B80000E9418040E942D042FEF40E060E080E0F6
:100B900090E00E94360482E389831A831B821C82C0
:100BA0001D821E8283E08F8381E0888720E040E001
:100BB00050E068E0CE0101960E94430380E081117D
:100BC000DECF802F0E943D0328960FB6F894DEBF3B
:100BD0000FBECDBFDF91CF911F910F9108951F924E
:100BE0000F920FB60F9211242F933F934F935F9361
:100BF0006F937F938F939F93AF93BF93EF93FF93E5
:100C0000CF93DF93CDB7DEB72997DEBFCDBFCE013F
:100C100001960E94D103E4E4F1E080819B81892365
:100C20008B8391818D8189238D8392812F81922362
:100C30009F8380FF04C00E94DA020E9436038B81EA
:100C400084FF0CC0198661E0CE0109960E94F10470
:100C50000E94DA02BC0189850E944E018B8183FFCC
:100C60000BC00E94E202823019F483E00E94180453
:100C70000E94DA020E945E018B8185FD0E940B03B7
:100C80008F8181FD0E940B038F8180FD0E940B03E9
:100C900029960FB6F894DEBF0FBECDBFDF91CF917E
:100CA000FF91EF91BF91AF919F918F917F916F9144
:100CB0005F914F913F912F910F900FBE0F901F901A
:100CC000189584B18C6284B985B1846185B985B188
:100CD000877D85B980E58CBD81E08DBD08951F922B
:100CE0000F920FB60F9211242F933F934F935F9360
:100CF0006F937F938F939F93AF93BF93EF93FF93E4
:100D00009EB580914B01823029F0E0914801F0912D
:100D100049019083E7E4F1E0A181B2819D012F5F59
:100D20003F4F32832183813019F011969C9101C08D
:100D300090E0E7E4F1E0838181508383882311F020
:100D40009EBD0AC0E7E4F1E083E080830580F68180
:100D5000E02D309709F00995FF91EF91BF91AF9188
:100D60009F918F917F916F915F914F913F912F91C3
:100D70000F900FBE0F901F901895E4E6F0E0808171
:100D80008D7F80831092C50080E18093C400109213
:100D9000C00088E98093C10086E08093C20080E0B3
:100DA00008959091C00095FFFCCF8093C6000895F0
:100DB0000F931F93CF93DF938C01D62FC0E007C012
:100DC000F801EC0FF11D80810E94D106CF5FCD1795
:100DD000B8F3DF91CF911F910F910895FB01DC01D2
:100DE00002C005900D9241505040D8F70895FB0184
:100DF000DC0102C001900D9241505040D8F7089597
:100E0000FB01DC018D91019080190110D9F3990B40
:100E10000895A0E0B0E0EFE0F7E00C94210AAE0105
:100E2000495F5F4FDA016D917D91AD010EE411E0F4
:100E3000F80182819381DC0113962C91139728602D
:100E400013962C930E948207D8011296ED91FC9183
:100E500013972381277F2383E4E00C943D0A0F93AB
:100E60001F93CF93DF938C01E0915001F0915101DA
:100E7000838181FF1BC0D0E0C0E0F80184916091C4
:100E8000500170915101DB011896ED91FC91199779
:100E9000882341F00995892B11F0DFEFCFEF0F5F29
:100EA0001F4FEBCF8AE00995892B19F08FEF9FEF49
:100EB00002C08D2F9C2FDF91CF911F910F9108952C
:100EC000AEE0B0E0E6E6F7E00C94210A0D891E8959
:100ED0008EE08C831A8309838FEF9FE79E838D8337
:100EE000AE01475E5F4F6F89788DCE0101960E94FB
:100EF0008207EF81F885E00FF11F10822E96E4E063
:100F00000C943D0AABE0B0E0E8E8F7E00C94130A7B
:100F10006C017B018A01FC0117821682838181FFAB
:100F2000CCC1CE0101963C01F6019381F70193FDFE
:100F3000859193FF81917F01882309F4BAC185329D
:100F400039F493FD859193FF81917F01853229F4D6
:100F5000B60190E00E947909E7CF912C212C312C29
:100F6000FFE1F315D8F08B3279F038F4803279F064
:100F70008332A1F4232D20611DC08D3261F08033B6
:100F800069F4232D216016C0832D8260382EE32D55
:100F9000E4603E2E2AC0F32DF8601DC037FC2DC042
:100FA00020ED280F2A3040F08E32B9F436FC81C192
:100FB000232D2064322E19C036FE06C08AE0989E8A
:100FC000200D1124922E11C0EAE02E9E200D112436
:100FD000222EF32DF0623F2E08C08C3621F4832D93
:100FE0008068382E02C0883641F4F70193FD859160
:100FF00093FF81917F018111B3CF982F9F7D9554ED
:10100000933028F40C5F1F4F9FE399830DC0833604
:1010100031F0833771F0833509F059C021C0F801F0
:10102000808189830E5F1F4F88248394912C530104
:1010300013C02801F2E04F0E511CF801A080B180CE
:1010400036FE03C0692D70E002C06FEF7FEFC5016F
:101050000E946E094C018201F32DFF773F2E16C0CE
:10106000280122E0420E511CF801A080B18036FE1A
:1010700003C0692D70E002C06FEF7FEFC5010E94D1
:1010800063094C01F32DF0683F2E820133FC1BC035
:10109000822D90E088169906B0F4B60180E290E0C7
:1010A0000E9479092A94F4CFF50137FC859137FE27
:1010B00081915F01B60190E00E94790921102A9484
:1010C00021E0821A91088114910471F7E8C08436F6
:1010D00011F0893641F5F80137FE07C06081718152
:1010E000828193810C5F1F4F08C060817181072E40
:1010F000000C880B990B0E5F1F4FF32DFF763F2ED0
:1011000097FF09C090958095709561957F4F8F4F9F
:101110009F4FF0683F2E2AE030E0A3010E94B509FE
:10112000882E861845C0853731F4232D2F7EB22EA8
:101130002AE030E025C0932D997FB92E8F36C1F07B
:1011400018F4883579F0B5C0803719F0883721F068
:10115000B0C0E92FE061BE2EB4FE0DC0FB2DF460DF
:10116000BF2E09C034FE0AC0292F2660B22E06C049
:1011700028E030E005C020E130E002C020E132E0AC
:10118000F801B7FE07C060817181828193810C5F95
:101190001F4F06C06081718180E090E00E5F1F4F9D
:1011A000A3010E94B509882E8618FB2DFF773F2EDC
:1011B00036FE0DC0232D2E7FA22E891458F434FE46
:1011C0000BC032FC09C0832D8E7EA82E05C0B82C22
:1011D000A32C03C0B82C01C0B92CA4FE0FC0FE0183
:1011E000E80DF11D8081803321F49A2D997EA92E7E
:1011F00009C0A2FE06C0B394B39404C08A2D8678B9
:1012000009F0B394A3FC11C0A0FE06C0B21488F488
:10121000280C922C9B180EC0B21460F4B60180E228
:1012200090E00E947909B394F7CFB21418F42B1808
:1012300002C0982C212CA4FE10C0B60180E390E0DF
:101240000E947909A2FE17C0A1FC03C088E790E0C4
:1012500002C088E590E0B6010CC08A2D867859F06E
:10126000A1FE02C08BE201C080E2A7FC8DE2B601C4
:1012700090E00E947909891438F4B60180E390E087
:101280000E9479099A94F7CF8A94F301E80DF11D31
:101290008081B60190E00E9479098110F5CF22206B
:1012A00009F442CEB60180E290E00E9479092A94C6
:1012B000F6CFF6018681978102C08FEF9FEF2B96C4
:1012C000E2E10C942F0AFC0105906150704001107E
:1012D000D8F7809590958E0F9F1F0895FC0161505F
:1012E000704001900110D8F7809590958E0F9F1F48
:1012F00008950F931F93CF93DF93FB01238121FD6B
:1013000003C08FEF9FEF2CC022FF16C0468157818C
:10131000248135814217530744F4A081B1819D0196
:101320002F5F3F4F318320838C93268137812F5F3E
:101330003F4F3783268314C08B01EC01FB010084EF
:10134000F185E02D0995892BE1F6D80116968D914E
:101350009C911797019617969C938E931697CE01A2
:10136000DF91CF911F910F910895FA01AA2728309C
:1013700051F1203181F1E8946F936E7F6E5F7F4F62
:101380008F4F9F4FAF4FB1E03ED0B4E03CD0670FDE
:10139000781F891F9A1FA11D680F791F8A1F911D31
:1013A000A11D6A0F711D811D911DA11D20D009F481
:1013B00068943F912AE0269F11243019305D3193C3
:1013C000DEF6CF010895462F4770405D4193B3E0AC
:1013D0000FD0C9F7F6CF462F4F70405D4A3318F053
:1013E000495D31FD4052419302D0A9F7EACFB4E004
:1013F000A6959795879577956795BA95C9F70097BC
:101400006105710508959B01AC010A2E069457955C
:10141000479537952795BA95C9F7620F731F841FB3
:10142000951FA01D08952F923F924F925F926F9249
:101430007F928F929F92AF92BF92CF92DF92EF9264
:10144000FF920F931F93CF93DF93CDB7DEB7CA1BE5
:10145000DB0B0FB6F894DEBF0FBECDBF09942A8810
:10146000398848885F846E847D848C849B84AA84B8
:10147000B984C884DF80EE80FD800C811B81AA8145
:10148000B981CE0FD11D0FB6F894DEBF0FBECDBF10
:08149000ED010895F894FFCF6F
:1014980000000002000000003D0100000000414380
:0414A8004B001503DD
:00000001FF
