:100000000C9434000C94DA000C9451000C945100C0
:100010000C9451000C9451000C9451000C9451001C
:100020000C9451000C9451000C9451000C9451000C
:100030000C9451000C9451000C9451000C945100FC
:100040000C9451000C94CF020C947B000C94B000E3
:100050000C9451000C9451000C9451000C945100DC
:100060000C9451000C94510011241FBECFEFD8E026
:10007000DEBFCDBF12E0A0E0B1E0E8E0F7E002C0F3
:1000800005900D92A63AB107D9F723E0A6EAB2E0AF
:1000900001C01D92AA33B207E1F70E946C000C94D4
:1000A00082030C9400000E946A01089584E10E947A
:1000B0008F020E9465034C9B05C06BE080E091E0DD
:1000C0000E946C032FEF8DE399E421508040904013
:1000D000E1F700C00000EFCF0E9453007894109227
:1000E000F2021092F1021092B0021092AF020E943E
:1000F0004E020E9456001F920F920FB60F921124CB
:100100002F933F934F935F936F937F938F939F931F
:10011000AF93BF93CF93EF93FF93C091C6008C2F03
:100120000E946503E091F202EF5FEF73E093F20249
:100130008091F102F0E0ED50FD4FC083FF91EF910F
:10014000CF91BF91AF919F918F917F916F915F916F
:100150004F913F912F910F900FBE0F901F901895C8
:100160001F920F920FB60F9211248F939F93EF93CC
:10017000FF939091B0028091AF02981769F0E091DF
:10018000AF02EF5FEF73E093AF02F0E0EF54FD4F8B
:1001900080818093C60005C0E1ECF0E080818F7D16
:1001A0008083FF91EF919F918F910F900FBE0F90E1
:1001B0001F9018951F920F920FB60F9211242F9334
:1001C0003F934F935F936F937F938F939F93AF93DF
:1001D000BF93CF93EF93FF931DBA89B182FB88271A
:1001E00080F90E94650386EA92E00E942302C0E043
:1001F00008C0EC2FF0E0EA55FD4F80810E946503B6
:10020000CF5FC930B0F389B182FB882780F90E94A3
:10021000650381E08DBBFF91EF91CF91BF91AF91CD
:100220009F918F917F916F915F914F913F912F910E
:100230000F900FBE0F901F90189584B18F7E84B9D8
:1002400085B18F7E85B984B1886084B985B1877F97
:1002500085B984B1806284B985B18F7D85B984B157
:10026000846084B985B1846085B98AB18B7F8AB98D
:100270008BB18B7F8BB981E08DBB82E0809369006D
:100280008AB18F7E8AB98BB18F7E8BB98AB1806239
:100290008AB98BB18F7D8BB98AB18F7B8AB98BB1CB
:1002A0008F7B8BB98AB18F778AB98BB18F778BB9F6
:1002B0000E94C20208958AB18E7F8AB98BB18E7F67
:1002C0008BB98AB182608AB98BB18D7F8BB90E945C
:1002D000510308958FEE8093640084B114B885B102
:1002E0009FEF95B987B1807887B988B18F6788B952
:1002F0008AB11AB88BB19BB940E060E881E690E022
:100300000E94890113BE15BE0E945B010E941D015F
:1003100008952FB7F894FC01608340832FBF0895A0
:10032000CF93DF93C0E0D0E080E012C085B18B7F37
:1003300085B98AE18A95F1F700C084E40E941D0323
:1003400095B1946095B92196C53C99E0D90724F4FC
:100350008F3F61F780E501C086E4DF91CF9108957A
:100360000F931F93CF93DF938C01D62F61E084E42A
:1003700090E00E9445038FEF0E941D03C82F882341
:1003800021F06D2FC8010E9439038C2FDF91CF918E
:100390001F910F910895EF92FF920F931F93CF93A8
:1003A000DF937C01162F042FC0E4DCE908C08AE14A
:1003B0008A95F1F700C0002311F0219741F0612FD9
:1003C000C7010E94B001882391F380E501C086E453
:1003D000DF91CF911F910F91FF90EF900895EF92D1
:1003E000FF920F931F93CF93DF937C018A01D22F4B
:1003F0000E949001C82F8035E1F4F7018081873198
:1004000041F440E060E080E090E00E94CB01803564
:1004100099F00115110539F041E06D2FC8010E94D6
:10042000CB01803549F00E949001882321F08C2F68
:1004300003C086E401C086E4DF91CF911F910F9144
:10044000FF90EF900895CF93DF931F92CDB7DEB763
:1004500020E2298329E0AC0161E0CE0101960E94EF
:10046000EF010F90DF91CF910895CF93DF9300D0EC
:1004700000D0CDB7DEB730E239836A834B832C835B
:1004800028E0AC0164E0CE0101960E94EF010F90DC
:100490000F900F900F90DF91CF910895CF93DF933E
:1004A000CDB7DEB761970FB6F894DEBF0FBECDBFF4
:1004B00080E090E00EC0FC01E95EFE4F21E1DE012C
:1004C000119601900D922A95E1F72981820F911DD5
:1004D00001968D3821E0920770F380E090E00E9451
:1004E000230261960FB6F894DEBF0FBECDBFDF9139
:1004F000CF910895CF93DF9300D0CDB7DEB794E3CB
:1005000099838A8320E040E050E062E0CE010196CA
:100510000E94EF010F900F90DF91CF9108951F93EC
:10052000CF93DF93CDB7DEB728970FB6F894DEBF31
:100530000FBECDBF182F83E00E947A022FEF40E05C
:1005400060E080E090E00E94350282E389831A83B4
:100550001B821C821D821E8283E08F8381E088873C
:1005600020E040E050E068E0CE0101960E94EF01FB
:1005700028960FB6F894DEBF0FBECDBFDF91CF91A6
:100580001F910895E4E6F0E080818B7F808380ED09
:100590008CBDE3E3F3E010821682158208951F926A
:1005A0000F920FB60F9211242F933F934F935F93A7
:1005B0006F937F938F939F93AF93BF93EF93FF932B
:1005C0009EB580913703823029F0E0913403F09199
:1005D00035039083E3E3F3E0A181B2819D012F5FB6
:1005E0003F4F32832183813019F011969C9101C0D5
:1005F00090E0E3E3F3E0838181508383882311F06B
:100600009EBD0AC0E3E3F3E083E080830580F681CA
:10061000E02D309709F00995FF91EF91BF91AF91CF
:100620009F918F917F916F915F914F913F912F910A
:100630000F900FBE0F901F901895CF93DF931F92CE
:10064000CDB7DEB78983E3E3F3E09E012F5F3F4F31
:100650003283218391E09383948392E090838EBDD3
:10066000809133038230E1F389810F90DF91CF9144
:100670000895E3E3F3E0928381836383148222E0AD
:100680002083FC0180818EBD0895E3E3F3E0928333
:100690008183638322E024832083FC0180818EBDDB
:1006A0000895E4E6F0E080818D7F80831092C5009C
:1006B00080E18093C4001092C00088E98093C1005B
:1006C00086E08093C20080E008959091C00095FF7D
:1006D000FCCF8093C60008950F931F93CF93DF93B1
:1006E0008C01D62FC0E007C0F801EC0FF11D80810E
:1006F0000E946503CF5FCD17B8F3DF91CF911F91B3
:080700000F910895F894FFCF5A
:1007080043545320636C6561720A0048656C6C6FD2
:1007180020576F726C64000702010001C9C380088A
:1007280013130820210000000611000200520105E1
:10073800110001032006110102000138081102040A
:1007480000030009000D111009000814000F120021
:100758000000000E11110A000909720000000000D3
:1007680000001011120C00070030FFFF202280004B
:100778000000301011120C0C30000214800003101D
:10078800120000001011120C1800000000000000F8
:1007980000000000001011120C24000000000000EE
:1007A80000000000000009111205300000000000E0
:1007B8000811120436000000001011200C0005007A
:1007C800071E848009C9C3800001051120010C0699
:1007D8001011200C1805000803C000102000E800C4
:1007E8004B1011200C2406D3A007FF02020000239F
:1007F800836A07112003300089A00511200135E024
:100808001011200C38111010001A033307280CA4FB
:10081800230E11200A4503002A0100FF0600184094
:1008280006112002508408061120025403070511FE
:1008380020015700091120055B40040178201011A0
:10084800210C005B470FC06D25F4DBD6DFECF710F9
:1008580011210C0CFE0115F0FF035B470FC06D253D
:100868001011210C18F4DBD6DFECF7FE0115F0FFB0
:10087800030811220400087F001D0B112307003410
:10088800040B040770031011300C00000000000076
:10089800000000000000000C114008003C080000A7
:0608A800222220FF0000E7
:00000001FF
