S01400004D792050726F6A65637420322E7372656301
S11300000C9434000C9451000C9451000C94510045
S11300100C9451000C9451000C9451000C94510018
S11300200C9451000C9451000C9451000C94510008
S11300300C9451000C9451000C9451000C945100F8
S11300400C9451000C9446020C9473000C94990087
S11300500C9451000C9451000C9451000C945100D8
S11300600C9451000C94510011241FBECFEFD8E022
S1130070DEBFCDBF12E0A0E0B1E0E2EBF5E002C0EC
S113008005900D92AE38B107D9F722E0AEE8B2E0A0
S113009001C01D92A93DB207E1F70E9464000C94CF
S11300A0D7020C9400000E94F90008950E943502C2
S11300B00E94D0022FEF8DE399E4215080409040BC
S11300C0E1F700C00000F2CF0E9453007894109230
S11300D0D1021092D00210928F0210928E020E94CE
S11300E0E5010E9456001F920F920FB60F92112441
S11300F02F933F934F935F936F937F938F939F932C
S1130100AF93BF93EF93FF938091C6000E94D002F8
S1130110FF91EF91BF91AF919F918F917F916F91DB
S11301205F914F913F912F910F900FBE0F901F90B1
S113013018951F920F920FB60F9211248F939F93CD
S1130140EF93FF9390918F0280918E02981769F03C
S1130150E0918E02EF5FEF73E0938E02F0E0E057E0
S1130160FD4F80818093C60005C0E1ECF0E0808102
S11301708F7D8083FF91EF919F918F910F900FBEA0
S11301800F901F90189584B18F7E84B985B18F7EAE
S113019085B984B1886084B985B1877F85B984B114
S11301A0806284B985B18F7D85B984B1846084B956
S11301B085B1846085B98AB18F7E8AB98BB18F7E0F
S11301C08BB98AB180628AB98BB18F7D8BB90E9459
S11301D0390208958AB18E7F8AB98BB18E7F8BB92B
S11301E08AB182608AB98BB18D7F8BB90E94BC02BF
S11301F008958FEE8093640084B114B885B19FEFA5
S113020095B987B1807887B988B18F6788B98AB181
S11302101AB88BB19BB940E060E881E690E00E9497
S1130220180113BE15BE0E94EA000E94C30008957F
S11302302FB7F894FC01608340832FBF0895CF93B8
S1130240DF93C0E0D0E080E012C085B18B7F85B938
S11302508AE18A95F1F700C084E40E94940295B182
S1130260946095B92196C53C99E0D90724F48F3F51
S113027061F780E501C086E4DF91CF910895DF92B4
S1130280EF92FF920F931F93CF93DF937C01D62FAE
S113029061E084E490E00E94B0028FEF0E94940237
S11302A0D82E81110DC00FC087010C0F111D8FEFC7
S11302B0F80180830E949402F8018083CF5F01C01B
S11302C0C0E0CD1788F38D2DDF91CF911F910F9151
S11302D0FF90EF90DF900895EF92FF920F931F939A
S11302E0CF93DF937C01162F042FC0E4DCE908C010
S11302F08AE18A95F1F700C0002311F0219741F0BB
S1130300612FC7010E943F01882391F380E501C05A
S113031086E4DF91CF911F910F91FF90EF900895A4
S1130320DF92EF92FF920F931F93CF93DF938C0191
S1130330D62F7A01D22E0E941F01C82F803501F5D5
S11303406D2FC8010E94B002F8018081873141F409
S113035040E060E080E090E00E946C01803599F01C
S1130360E114F10439F041E06D2DC7010E946C01E4
S1130370803549F00E941F01882321F08C2F03C08F
S113038086E401C086E4DF91CF911F910F91FF9025
S1130390EF90DF90089561E090E00E94B00280E069
S11303A00E9494020895CF93DF931F92CDB7DEB7D6
S11303B020E2298328E0AC0161E0CE0101960E948D
S11303C090010F90DF91CF910895EF92FF920F93D8
S11303D01F93CF93DF93CDB7DEB761970FB6F89431
S11303E0DEBF0FBECDBF8BB180628BB98FE19EE4BF
S11303F00197F1F700C000008BB18F7D8BB98FEDB1
S11304009EE20197F1F700C0000000E010E018C080
S1130410F801E050FF4F81E1DE01119601900D9249
S11304208A95E1F76981E62EF12C20E040E050E066
S1130430CE0102960E9490010E0D1F1D0F5F1F4FEB
S11304400D3891E0190720F380E090E00E94D30179
S113045061960FB6F894DEBF0FBECDBFDF91CF918A
S11304601F910F91FF90EF90089583E50E94CB01B7
S11304700895E4E6F0E080818B7F808380ED8CBD7D
S1130480E2EDF2E010821682158208951F920F9217
S11304900FB60F9211242F933F934F935F936F9353
S11304A07F938F939F93AF93BF93EF93FF939EB5E7
S11304B08091D602823029F0E091D302F091D402E7
S11304C09083E2EDF2E0A181B2819D012F5F3F4F65
S11304D032832183813019F011969C9101C090E000
S11304E0E2EDF2E0838181508383882311F09EBD85
S11304F00AC0E2EDF2E083E080830580F681E02D1E
S1130500309709F00995FF91EF91BF91AF919F91B9
S11305108F917F916F915F914F913F912F910F90A8
S11305200FBE0F901F901895CF93DF931F92CDB7F6
S1130530DEB78983E2EDF2E09E012F5F3F4F328305
S1130540218391E09383948392E090838EBD809184
S1130550D2028230E1F389810F90DF91CF91089527
S1130560E2EDF2E092838183638322E0248320839B
S1130570FC0180818EBD0895E4E6F0E080818D7FEA
S113058080831092C50080E18093C4001092C00063
S113059088E98093C10086E08093C20080E00895DA
S11305A09091C00095FFFCCF8093C6000895F89405
S10505B0FFCF77
S11305B20702010001C9C380081313082021140093
S11305C20006110002005201051100010320061168
S11305D201020001380811020400030009000D1190
S11305E21009000814000F12000000000E11110A75
S11305F200090972000000000000001011120C0032
S1130602070030FFFF202280000000301011120C7E
S11306120C300002148000031012000000101112AA
S11306220C1800000000000000000000000010117F
S1130632120C240000000000000000000000000969
S113064211120530000000000008111204360000E7
S113065200001011200C000500071E848009C9C384
S1130662800001051120010C061011200C18050050
S11306720803C000102000E8004B1011200C2406CF
S1130682D3A007FF0202000023836A07112003306C
S11306920089A00511200135E01011200C38111039
S11306A210001A033307280CA4230E11200A450351
S11306B2002A0100FF060018400611200250840897
S11306C206112002540307051120015700091120C5
S11306D2055B40040178201011210C005B470FC018
S11306E26D25F4DBD6DFECF71011210C0CFE01159D
S11306F2F0FF035B470FC06D251011210C18F4DBCA
S1130702D6DFECF7FE0115F0FF03081122040008FE
S11307127F001D0B1123070034040B040770031020
S113072211300C0000000000000000000000000076
S11107320C114008003C080000222220FF00A9
S9030000FC
